:020000040800F2
:100000000808002089010008E5010008E501000852
:10001000E5010008E5010008E50100080000000016
:10002000000000000000000000000000E5010008E2
:10003000E501000800000000E5010008E5010008F6
:10004000E5010008E5010008E5010008E5010008F8
:10005000E5010008E5010008E5010008E5010008E8
:10006000E5010008E5010008E5010008E5010008D8
:10007000E5010008E5010008E5010008E5010008C8
:10008000E5010008E5010008E5010008E5010008B8
:10009000E5010008E5010008E5010008E5010008A8
:1000A000E5010008E5010008E5010008E501000898
:1000B000E5010008E5010008E5010008E501000888
:1000C000E5010008E5010008E5010008E501000878
:1000D000E5010008E5010008E5010008E501000868
:1000E000E5010008E5010008E5010008E501000858
:1000F000E5010008E5010008E5010008E501000848
:10010000E5010008E5010008E5010008E501000837
:10011000E5010008E5010008E5010008E501000827
:10012000E5010008E5010008E5010008E501000817
:10013000E5010008E5010008E5010008E501000807
:10014000E5010008E5010008E5010008E5010008F7
:10015000E5010008E5010008E5010008E5010008E7
:10016000E5010008E5010008E5010008E5010008D7
:10017000E5010008E5010008E5010008E5010008C7
:10018000E5010008E501000880B582B000AF104B22
:100190007B60104B3B6007E03B681A1D3A607A6851
:1001A000111D796012681A603B680B4A9342F3D3C1
:1001B0000A480B494FF000028842B8BF40F8042BB0
:1001C000FADB00F04BF800BF0837BD4680BD00BF2A
:1001D000D00B0008000000200400002004000020D4
:1001E0000800002080B400AFFEE700BF80B586B0F5
:1001F00000AF00237B730723BB730023FB73002333
:100200003B7407F10C03184600F06CFB00F0EEF9AC
:100210000121082000F080F84FF470437B60012337
:100220003B720023BB7203237B720023FB723B1DD6
:100230001946084800F0E8F800237B6102E07B697A
:1002400001337B617B69044A9342F8DD00BF1837B4
:10025000BD4680BD000C02409F86010080B582B083
:1002600000AFFFF7C3FF01222921274800F090FBD0
:1002700001222B21254800F08BFB00237B6002E04C
:100280007B6801337B607B68214A9342F8DD1E4B1B
:100290001B785BB2002B09DD4FF480411D4800F054
:1002A00041F94FF480511B4800F04AF9174B1B7875
:1002B0005BB2002B09DD4FF40051164800F032F913
:1002C0004FF40041134800F03BF90F4B1B785BB231
:1002D000002B09DA4FF480510E4800F023F94FF457
:1002E00080410C4800F02CF9084B1B785BB2002BC6
:1002F000B9DA4FF40041074800F014F94FF4005107
:10030000044800F01DF9AEE70400002005000020BD
:100310009F860100000C024080B483B000AF78607B
:100320000B46FB70FB78002B06D00949084B1A6B73
:100330007B6813430B6306E00549054B1A6B7B682A
:10034000DB4313400B6300BF0C37BD4680BC7047D6
:100350000038024080B483B000AF78600B46FB7079
:10036000FB78002B06D00949084B5A6C7B68134375
:100370004B6406E00549054B5A6C7B68DB43134030
:100380004B6400BF0C37BD4680BC7047003802404C
:1003900080B483B000AF78600B46FB70FB78002B15
:1003A00006D00949084B1A6A7B6813430B6206E0C2
:1003B0000549054B1A6A7B68DB4313400B6200BF9B
:1003C0000C37BD4680BC70470038024080B483B013
:1003D00000AF78600B46FB70FB78002B06D0094914
:1003E000084B5A6A7B6813434B6206E00549054B8C
:1003F0005A6A7B68DB4313404B6200BF0C37BD4633
:1004000080BC70470038024080B487B000AF78608D
:10041000396000237B6100233B610023FB600023E4
:100420007B6176E001227B6902FA03F33B613B6862
:100430001A683B691340FB60FA683B699A4265D1D0
:100440007B681A687B695B00032101FA03F3DB43D5
:100450001A407B681A607B681A683B681B791946EA
:100460007B695B0001FA03F31A437B681A603B68FF
:100470001B79012B03D03B681B79022B2ED17B68A3
:100480009A687B695B00032101FA03F3DB431A409E
:100490007B689A607B689A683B685B7919467B69E0
:1004A0005B0001FA03F31A437B689A607B685A6821
:1004B0007B699BB2012101FA03F3DB431A407B689D
:1004C0005A607B685A683B689B7919467B699BB286
:1004D00001FA03F39BB21A437B685A607B68DA68BF
:1004E0007B699BB25B00032101FA03F3DB431A40F3
:1004F0007B68DA607B68DA683B68DB7919467B6980
:100500005B0001FA03F31A437B68DA607B6901330D
:100510007B617B690F2B85D900BF1C37BD4680BC32
:10052000704700BF80B483B000AF78600B467B801B
:100530007B687A881A8300BF0C37BD4680BC704741
:1005400080B483B000AF78600B467B807B687A888C
:100550005A8300BF0C37BD4680BC704780B485B05D
:1005600000AF78600B467B8013467B700023FB60F6
:100570000023BB607A787B8803F007039B0002FAB4
:1005800003F3FB607B88DB089BB218467B88DB08A3
:100590009BB21A467B68083253F822207B8803F00E
:1005A00007039B000F2101FA03F3DB4302EA030177
:1005B0007B6800F1080243F822107B88DB089BB2BD
:1005C0001A467B68083253F82220FB681343BB604D
:1005D0007B88DB089BB21A467B680832B96843F80F
:1005E000221000BF1437BD4680BC704780B500AFF5
:1005F000124A124B1B6843F0010313600F4B002299
:100600009A600E4A0D4B1B6823F0847323F48033E9
:1006100013600A4B0A4A5A60084A084B1B6823F4C5
:1006200080231360054B0022DA6000F00DF8054BC3
:100630004FF000629A6000BF80BD00BF00380240EA
:100640001030002400ED00E080B483B000AF002340
:100650007B6000233B60354A344B1B6843F4803396
:100660001360324B1B6803F400333B607B6801333B
:100670007B603B68002B03D17B68B3F5A06FF0D1A2
:100680002A4B1B6803F40033002B02D001233B608C
:1006900001E000233B603B68012B42D1234A234BFE
:1006A0001B6C43F080531364214A214B1B6843F4B5
:1006B000804313601D4A1D4B9B6893601B4A1B4B74
:1006C0009B6843F400439360184A184B9B6843F4BB
:1006D000A0539360154B174A5A60144A134B1B687A
:1006E00043F08073136000BF104B1B6803F000736E
:1006F000002BF9D0104B40F205621A600B4A0B4BED
:100700009B6823F003039360084A084B9B6843F0FF
:100710000203936000BF054B9B6803F00C03082B9A
:10072000F9D100BF0C37BD4680BC7047003802408D
:100730000070004019544007003C024080B582B070
:1007400000AF78607B68174A93420AD101214FF4C9
:100750008050FFF73BFE00214FF48050FFF736FE3C
:100760001CE07B68104A93420AD101214FF480407B
:10077000FFF70EFE00214FF48040FFF709FE0DE069
:100780007B680A4A934209D101214FF40040FFF7E8
:10079000FFFD00214FF40040FFF7FAFD00BF0837CE
:1007A000BD4680BD0030014000380040003C0040A4
:1007B00080B485B000AF786039600023FB817B682E
:1007C0001B88FB81FB8903F44153FB813B681A883A
:1007D0003B685B8813439AB23B689B8813439AB289
:1007E0003B68DB8813439AB23B681B8913439AB278
:1007F0003B685B8913439AB23B689B8913439AB267
:100800003B68DB8913439AB2FB891343FB817B6806
:10081000FA891A807B689B8B9BB223F400639AB29F
:100820007B689A833B681A8A7B681A8200BF1437F8
:10083000BD4680BC704700BF80B483B000AF786015
:100840000B46FB70FB78002B08D07B681B889BB2A3
:1008500043F040039AB27B681A8007E07B681B88EC
:100860009BB223F040039AB27B681A8000BF0C371A
:10087000BD4680BC704700BF80B483B000AF7860D5
:100880007B689B899BB218460C37BD4680BC70477D
:1008900080B483B000AF78600B467B807B687A8839
:1008A0009A8100BF0C37BD4680BC704780B485B0CC
:1008B00000AF78600B467B800023FB737B681B894D
:1008C0009AB27B8813409BB2002B02D00123FB73AA
:1008D00001E00023FB73FB7B18461437BD4680BC48
:1008E000704700BF80B584B000AF78600023FB7311
:1008F00000F086F87B685A787B681B781343DAB27D
:100900007B68DB781343DAB27B681B791343DAB276
:100910007B689B781343DBB2FB7307F10F03012263
:100920002021184600F004F800BF1037BD4680BDF6
:1009300080B582B000AF78600B46FB7013463B80F9
:100940003B88012B03D9FB7843F04003FB7008215F
:100950000E48FFF7F5FDFB78184600F0EDF80AE0C9
:100960007B681B78184600F0E7F83B88013B3B802A
:100970007B6801337B603B88002BF1D10821034861
:10098000FFF7D0FD00BF0837BD4680BD0010024014
:1009900080B582B000AF78600B46FB7013463B8099
:1009A0003B88012B04D9FB7863F03F03FB7003E025
:1009B000FB7863F07F03FB7008211048FFF7C0FD50
:1009C000FB78184600F0B8F80CE0002000F0B4F80E
:1009D00003461A467B681A703B88013B3B807B6864
:1009E00001337B603B88002BEFD108210348FFF7E0
:1009F00099FD00BF0837BD4680BD00BF0010024012
:100A000080B588B000AF01214FF48050FFF7A2FC01
:100A100001210120FFF780FC01211020FFF77CFC61
:100A200001211020FFF778FC01211020FFF774FC52
:100A3000052205213D48FFF791FD052206213B488F
:100A4000FFF78CFD052207213848FFF787FD0223B9
:100A50003B770023BB770223FB7702237B7720239E
:100A6000BB6107F1180319463048FFF7CDFC80231E
:100A7000BB6107F1180319462C48FFF7C5FC40235A
:100A8000BB6107F1180319462848FFF7BDFC284849
:100A9000FFF754FE0023BB8000233B8100237B81B2
:100AA0000023BB814FF40073FB8108233B820023AA
:100AB0007B820723BB824FF48273FB803B1D194668
:100AC0001B48FFF775FE01211948FFF7B5FE082303
:100AD000BB6101233B770023BB7702237B7707F1C0
:100AE000180319461348FFF78FFC08211148FFF738
:100AF00019FD0123BB6100233B770023BB77022351
:100B00007B770023FB7707F1180319460948FFF7A5
:100B10007BFC0223BB6107F1180319460548FFF768
:100B200073FC00BF2037BD4680BD00BF00000240FF
:100B3000003001400010024080B582B000AF034693
:100B4000FB711F4B4FF480521A600BE01C4B1B686B
:100B50005A1E1B490A60002B04D100F035F80346E9
:100B6000DBB229E002211748FFF7A0FE0346002B65
:100B7000ECD0FB799BB219461248FFF789FE104B67
:100B80004FF480521A600BE00D4B1B685A1E0C4943
:100B90000A60002B04D100F017F80346DBB20BE02B
:100BA00001210848FFF782FE0346002BECD00548E0
:100BB000FFF762FE0346DBB218460837BD4680BD2C
:100BC000000000200030014080B400AFFEE700BF0D
:040BD0000010000011
:0400000508000000EF
:00000001FF
