:020000040800F2
:10000000B8180020E5140008411500084115000843
:1000100041150008411500084115000800000000C6
:100020000000000000000000000000004115000872
:1000300041150008000000004115000841150008A6
:100040004115000841150008411500084115000838
:100050004115000841150008411500084115000828
:100060004115000841150008411500084115000818
:100070004115000841150008411500084115000808
:1000800041150008411500084115000841150008F8
:1000900041150008411500084115000841150008E8
:1000A00041150008411500084115000841150008D8
:1000B00041150008411500084115000841150008C8
:1000C00041150008411500084115000841150008B8
:1000D00041150008411500084115000841150008A8
:1000E0004115000841150008851E0008411500084B
:1000F0004115000841150008411500084115000888
:100100004115000841150008411500084115000877
:100110004115000841150008411500084115000867
:100120004115000841150008411500084115000857
:100130004115000841150008411500084115000847
:10014000411500084115000841150008711E0008FE
:100150004115000841150008411500084115000827
:100160004115000841150008411500084115000817
:100170004115000841150008411500084115000807
:10018000411500084115000880B485B000AF7860C3
:100190000023FB607B68DB684FF0FF325A607B68AE
:1001A000DB684FF0FF325A61FB7B43F08003FB7347
:1001B0007B7B43F008037B737B68DB68FA689A619A
:1001C00000BF1437BD4680BC704700BF80B586B005
:1001D00000AF78600023FB7400237B610023FB6089
:1001E000032002F0FDFC7B68DB681B69FB607B6918
:1001F00001337B617B69184A934201D9002326E0D1
:10020000FB68C3F3C073DBB2002BE9D000237B6132
:10021000FB6843F00103FB607B68DB68FA681A61E6
:100220007B68DB681B69FB607B6901337B617B69F1
:10023000094A934206D8FB68C3F30003DBB2012BE3
:10024000EED000E000BF032002F0CAFCFB7C1846A1
:100250001837BD4680BD00BF400D030080B489B093
:1002600000AFF860B96011461A460B46FB711346A1
:10027000BB800023FB76FB68DB78002B22D10023B8
:100280007B610023FB61BB880333002B00DA03335F
:100290009B107B61FB79FA6832339B0013449B68A7
:1002A0003B610023FB6109E0BB681A683B691A6087
:1002B000FB690133FB61BB680433BB60FA697B698E
:1002C0009A42F1D3FB7E18462437BD4680BC704766
:1002D00080B489B000AFF860B9601346FB8000239A
:1002E000FB61FB880333002B00DA03339B10BB61F7
:1002F000FB68D3F8D0307B610023FB6109E07B69A8
:100300001A68BB681A60FB690133FB61BB68043380
:10031000BB60FA69BB699A42F1D3BB6818462437BF
:10032000BD4680BC704700BF80B487B000AF786026
:100330000B46FB7000233B610023FB737B680022AC
:10034000DA707B6801229A707B6840229A80FB7881
:10035000012B13D14FF0A0433B617B680122DA727D
:100360007B6808221A707B6804225A707B684FF4FD
:10037000A072DA807B6802221A7211E0FB78002BEF
:100380000ED1454B3B617B680022DA727B680C2200
:100390001A707B6806225A707B684FF4A062DA807C
:1003A0003A697B68DA603B6903F500631A467B684B
:1003B0001A6100237B611CE07B695A013B6913448D
:1003C00003F5106319467A687B6904339B00134474
:1003D00099607B695A013B69134403F53063194600
:1003E0007A687B6914339B00134459607B6901333D
:1003F0007B617B685B781A467B699A42DCD83B69F3
:1004000003F580631A467B685A613B6903F588638C
:100410001A467B68C3F8CC2000237B610FE07B6920
:100420005A013B69134403F5A06319467A687B6956
:1004300022339B00134499607B6901337B617B68A5
:100440001B781A467B699A42E9D800237B610FE04A
:100450007B691A033B69134403F5805319467A6894
:100460007B6932339B00134499607B6901337B6164
:100470007B681B781A467B699A42E9D83B6903F589
:1004800060631A467B68C3F80C21FB7B18461C3757
:10049000BD4680BC704700BF0000044080B588B0F6
:1004A00000AF78600023FB770023BB6100237B61F2
:1004B0000023FB607B681B7A012B4FD17B68DB68D4
:1004C0009B6B7B61BB7D6FF30003BB757B685B7AC5
:1004D000002B03D0BB7D43F01003BB757B68DB684A
:1004E0007A699A630023BB617B68DB68DB68BB6168
:1004F0003B7E6FF386133B76BB7E6FF38613BB7632
:100500003B7E43F010033B763B7E6FF3C3033B76A9
:100510003B7E6FF3C7133B76BB7E6FF34103BB7625
:10052000BB7E6FF3C303BB767B68DB68BA69DA60B6
:100530007868FFF74BFE7B68DB78012B40F0828008
:100540003B7B052262F344033B733B7B43F0200378
:100550003B737B68DB68FA689A6073E07B68DB68F2
:10056000DB68BB613B7E43F040033B767B68DB6826
:10057000BA69DA607868FFF729FE00237B61BB7DEA
:1005800043F00103BB757B681B7A032B03D1BB7D52
:1005900043F00203BB75BB7D43F00403BB75BB7D19
:1005A00043F00803BB75BB7D43F02003BB757B683C
:1005B0005B7A002B03D0BB7D43F01003BB757B68D7
:1005C000DB687A699A63142002F02EFB7B68DB6893
:1005D000DB68BB617B681B7A032B03D1BB7E43F0D6
:1005E0000103BB767B68DB68BA69DA607B681B7ADB
:1005F000032B27D17B68DB681B6B3B61FB7C0122F3
:1006000062F38303FB74BB7C6FF3C713BB74FB7C87
:1006100043F01003FB74BB7C2D2262F30603BB7412
:100620007B68DB683A691A63C82002F0FDFABB7C7C
:1006300043F08003BB747B68DB683A691A63C820A7
:1006400002F0F2FA7B68DB78012B10D17B68DB6863
:100650009B68FB603B7B052262F344033B733B7B5F
:1006600043F020033B737B68DB68FA689A60FB7F8A
:1006700018462037BD4680BD80B485B000AF786095
:100680000023FB730023BB603B7A43F001033B7202
:100690007B68DB687A68D2689168BA680A439A60B6
:1006A000FB7B18461437BD4680BC704780B485B0CC
:1006B00000AF78600023FB730023BB603B7A43F0FC
:1006C00001033B727B68DB687A68D2689168BA681C
:1006D000D2430A409A60FB7B18461437BD4680BC63
:1006E000704700BF80B586B000AF786039600023E6
:1006F000FB7400237B610023FB60FB6843F0200355
:10070000FB603B68DBB203F01F03DAB2FB6862F305
:100710008A13FB607B68DB68FA681A617B68DB68B8
:100720001B69FB607B6901337B617B69094A9342EA
:1007300006D8FB68C3F34013DBB2012BEED000E018
:1007400000BF032002F04CFAFB7C18461837BD4668
:1007500080BD00BF400D030080B586B000AF78605B
:100760000023FB7400237B610023FB60FB6843F0E4
:100770001003FB607B68DB68FA681A617B68DB68E2
:100780001B69FB607B6901337B617B69094A93428A
:1007900006D8FB68C3F30013DBB2012BEED000E0F8
:1007A00000BF032002F01CFAFB7C18461837BD4638
:1007B00080BD00BF400D030080B584B000AF7860FD
:1007C0000B46FB700023FB737B68DB68DB68BB6058
:1007D000FB7A6FF34513FB72FB7A6FF38613FB72A0
:1007E000FB78012B04D1FB7A43F02003FB7206E077
:1007F000FB78002B03D1FB7A43F04003FB727B684C
:10080000DB68BA68DA60322002F00EFAFB7B184629
:100810001037BD4680BD00BF80B483B000AF7860A4
:100820007B68DB685B6903F0010318460C37BD4643
:1008300080BC704780B582B000AF78607868FFF701
:10084000EBFF0346012B14BF01230023DBB2184644
:100850000837BD4680BD00BF80B485B000AF78606A
:100860000023FB607B68DB685B69FB607B68DB689F
:100870009B69FA681340FB60FB6818461437BD4655
:1008800080BC704780B485B000AF78600B46FB70C9
:100890007B681B691B68FB60FB7803F00303DAB21B
:1008A0003B7B62F301033B737B681B69FA681A6048
:1008B00000BF1437BD4680BC704700BF80B58CB008
:1008C00000AF7860002387F82B3000237B62002381
:1008D0003B620023FB610023BB6100237B617B68DB
:1008E000D3F80C3100221A607B681B691B683B62DD
:1008F00097F821306FF3C40387F821307B681B69B8
:100900003A6A1A607B68DB7A012B33D1032178685D
:10091000FFF7B8FF7B68DB6880225A624023FB83C5
:100920008023BB837B68DB68FA699A62BA8BFB8B96
:1009300013449BB23B8380237B837B68DB68BA696B
:10094000C3F804213A8B7B8B13449BB23B83002377
:100950007B837B68DB68BA69C3F808213A8B7B8BA1
:1009600013449BB23B8300237B837B68DB68BA69BB
:10097000C3F80C2110217868FFF7B4FE7868FFF700
:10098000EBFE7B681B6900221A617B681B690022F1
:100990005A617B681B694FF0FF329A617B681B6963
:1009A0000022DA610023FB623AE07A68FB6A0433D2
:1009B0009B0013449B681B687B6297F8273023F0E9
:1009C0007F03DBB2002B0ED000237B6297F8273029
:1009D00043F0400387F8273097F8273043F00803A7
:1009E00087F8273001E000237B627A68FB6A0433D2
:1009F0009B0013449B687A6A1A607A68FB6A043326
:100A00009B0013449B6800221A617A68FB6A0433D6
:100A10009B0013449B68FF229A60FB6A0133FB62D0
:100A20007B685B781A46FB6A9A42BED80023FB6259
:100A300035E07A68FB6A14339B0013445B681B68DB
:100A4000FB60FB7B23F07F03DBB2002B0AD000238B
:100A5000FB60FB7B43F04003FB73FB7B43F008032D
:100A6000FB7301E00023FB607A68FB6A14339B0090
:100A700013445B68FA681A607A68FB6A14339B0057
:100A800013445B6800221A617A68FB6A14339B0086
:100A900013445B68FF229A60FB6A0133FB627B6848
:100AA0005B781A46FB6A9A42C3D800237B617B7D40
:100AB00043F001037B757B681B697A6812691169D1
:100AC0007A69D24311407A690A431A617B68DB78FC
:100AD000012B1BD100233B613B7C43F001033B74A2
:100AE0003B7C43F002033B743B8A402262F38A035F
:100AF0003B82BB7C43F00103BB747B8A402262F3E0
:100B000049037B827B681B693A691A63786800F045
:100B100007F897F82B3018463037BD4680BD00BF28
:100B200080B584B000AF78600023FB730023BB6006
:100B30007B68DB6800229A617B68DB684FF0FF32DC
:100B40005A617868FFF720FB7B68DB78002B03D1C4
:100B50003B7A43F010033B727B7A43F008037B72CD
:100B60007B7A43F010037B727B7A43F020037B7225
:100B7000BB7A43F00403BB72BB7A43F00803BB7239
:100B80003B7A43F008033B72BB7A43F01003BB721D
:100B9000BB7A43F02003BB727B68DB687A68D2685B
:100BA0009169BA68D2431140BA680A439A61FB7BE3
:100BB00018461037BD4680BD80B485B000AF786060
:100BC0000023FB737B681B699B68BB603B7AC3F3A4
:100BD0004103DBB2022B09D0032B04D0012B02D03E
:100BE0000323FB7305E00223FB7302E00123FB7385
:100BF00000BFFB7B18461437BD4680BC704700BF62
:100C000080B487B000AF78600023FB750023BB6021
:100C10007B681B699B683B617B689B691B68FB6009
:100C20003B7CC3F34103DBB2022B04D0BB896FF3DF
:100C30000A03BB8105E0BB89032262F30A03BB817F
:100C400000BF7B689B69FA681A607B7A43F00103F6
:100C50007B727B681B697A6812695168BA68D243F3
:100C60001140BA680A435A60FB7D18461C37BD46DE
:100C700080BC704780B487B000AF786039600023D3
:100C8000FB740023FB600023BB603B685B78012B97
:100C90000FD13B681B787A6804339B0013449B6830
:100CA0007B613B681B781A46012393409BB23B81D2
:100CB0000EE03B681B787A6814339B0013445B6832
:100CC0007B613B681B781A46012393409BB27B8172
:100CD0007B691B68FB607B7B23F07F03DBB2002B0F
:100CE00027D13B689B689BB2C3F30A039AB2BB89C6
:100CF00062F30A03BB813B68DB7803F00303DAB2DB
:100D0000BB7B62F38303BB733B68DB88DBB203F01E
:100D10000F03DAB2FB8962F38913FB81FB7B43F09B
:100D20001003FB737B7B43F080037B73FA687B6962
:100D30001A607B681B697A681269D169BA680A43CC
:100D4000DA61FB7C18461C37BD4680BC704700BF8B
:100D500080B487B000AF786039600023FB74002353
:100D6000FB600023BB603B685B78012B0FD13B68C5
:100D70001B787A6804339B0013449B687B613B6853
:100D80001B781A46012393409BB23B810EE03B68DF
:100D90001B787A6814339B0013445B687B613B6863
:100DA0001B781A46012393409BB27B817B7B6FF3B8
:100DB000C7137B73FA687B691A607B681B697A6862
:100DC0001269D169BA68D2430A40DA61FB7C1846DD
:100DD0001C37BD4680BC704780B588B000AF7860D6
:100DE00039600023FB770023BB6100237B61002374
:100DF0003B613B685B78012B40F0AB803B681B7824
:100E00007A6804339B0013449B681B687B613B68D2
:100E10001B787A6804339B0013449B681B693B6111
:100E20003B685B69002B09D13B696FF312033B619F
:100E30007B8A012262F3CC037B8222E03B685B6900
:100E4000C3F312023B6962F312033B613B685A69C8
:100E50003B689B6813445A1E3B689B68B2FBF3F3E4
:100E60009BB2C3F309039AB27B8A62F3CC037B8201
:100E70003B68DB78012B04D1FB7C012262F3461333
:100E8000FB743B681B787A6804339B0013449B68AF
:100E90003A691A617B68DB78012B0AD13B681B78C1
:100EA0007A6804339B0013449B683A6812695A615C
:100EB00015E03B68DB78012B11D03B685B69002BA8
:100EC0000DD03B681B781A4601239340BB617B68B9
:100ED0001B697A681269516BBA690A435A633B68A5
:100EE000DB78012B14D17B681B699B68FB60FB6876
:100EF000C3F30D239BB203F00103002B04D1FB7D50
:100F000043F02003FB7503E0FB7D43F01003FB750A
:100F1000FB7D43F00403FB75FB7D43F08003FB7511
:100F20003B681B787A6804339B0013449B687A699A
:100F30001A603B68DB78012B40F089803B68D968F8
:100F40003B681A783B685B699BB27868FFF786F963
:100F50007DE03B681B787A6814339B0013445B6820
:100F60001B687B613B681B787A6814339B001344D1
:100F70005B681B693B613B685B69002B0DD13B687B
:100F80009B68C3F312023B6962F312033B617B8AE5
:100F9000012262F3CC037B8220E03B685A693B6804
:100FA0009B6813445A1E3B689B68B2FBF3F39BB2E9
:100FB000C3F309039AB27B8A62F3CC037B827B8AF8
:100FC000C3F3C9039BB21A463B689B6803FB02F359
:100FD000C3F312023B6962F312033B613B681B7867
:100FE0007A6814339B0013445B683A691A617B6822
:100FF000DB78012B09D13B681B787A6814339B009E
:1010000013445B683A6812695A613B68DB78012BCC
:101010000CD13B685B79002B04D0FB7D43F02003AF
:10102000FB7503E0FB7D43F01003FB75FB7D43F094
:101030000403FB75FB7D43F08003FB753B681B7865
:101040007A6814339B0013445B687A691A60FB7FEB
:1010500018462037BD4680BD80B489B000AF7860A7
:1010600039600023FB770023BB6100233B61002331
:10107000BB603B685B78012B70D17B689B697B61AF
:101080007B691B683B617B691B69BB603B685B6973
:10109000002B09D13B7A6FF306033B72BB7A012226
:1010A00062F3C403BB7223E03B685A693B689B68E8
:1010B0009A420ED93B689A683B685A613B689B68C4
:1010C000DBB203F07F03DAB23B7A62F306033B72D2
:1010D00009E03B685B69DBB203F07F03DAB23B7A7D
:1010E00062F306033B72BB7A012262F3C403BB7254
:1010F000BA687B691A617B68DB78012B09D13B6890
:101100001B787A6804339B0013449B683A68126921
:101110005A61FB7C43F00403FB74FB7C43F08003C7
:10112000FB743A697B691A607B68DB78002B76D1A7
:101130003B685B69002B72D03B681B781A46012321
:1011400093401A46BB691343BB617B681B697A688D
:101150001269516BBA690A435A6360E03B681B78B5
:101160007A6814339B0013445B681B683B613B68DF
:101170001B787A6814339B0013445B681B69BB605F
:101180003B685B69002B0FD13B689B68DBB203F0C7
:101190007F03DAB23B7A62F306033B72BB7A012229
:1011A00062F3C403BB7212E03B689A683B685A6101
:1011B0003B689B68DBB203F07F03DAB23B7A62F3F1
:1011C00006033B72BB7A012262F3C403BB723B6825
:1011D0001B787A6814339B0013445B68BA681A6101
:1011E0007B68DB78012B09D13B681B787A68143364
:1011F0009B0013445B683A6812695A61FB7C43F0B8
:101200000403FB74FB7C43F08003FB743B681B7896
:101210007A6814339B0013445B683A691A60FB7F59
:1012200018462437BD4680BC704700BF80B487B0E5
:1012300000AF786039600023FB750023FB603B68DA
:101240005B78012B1CD13B681B787A6804339B00C8
:1012500013449B683B613B691B68FB60FB7B23F08D
:101260007F03DBB2002B03D0FB7B43F04003FB7317
:10127000BB7B43F02003BB73FA683B691A6011E043
:101280003B681B787A6814339B0013445B683B61AE
:101290003B691B68FB60BB7B43F02003BB73FA68B0
:1012A0003B691A60FB7D18461C37BD4680BC704701
:1012B00080B487B000AF786039600023FB740023EE
:1012C000FB603B685B78012B08D13B681B787A6830
:1012D00004339B0013449B687B6107E03B681B78E9
:1012E0007A6814339B0013445B687B617B691B68DD
:1012F000FB60BB7B6FF34513BB733B68DB78032B51
:1013000003D03B68DB78022B03D1FB7B43F0100357
:10131000FB73FA687B691A60FB7C18461C37BD4674
:1013200080BC704780B485B000AF78607B681B6973
:101330009B69FB607B681B69DB69FA681340FB6093
:10134000FB681B0C18461437BD4680BC704700BFB5
:1013500080B485B000AF78600B46FB70FB787A688C
:1013600014339B0013445B689B68FB607B681B69BC
:101370005B69FA681340FB60FB6818461437BD468A
:1013800080BC704780B485B000AF78607B681B6913
:101390009B69FB607B681B69DB69FA681340FB6033
:1013A000FB689BB218461437BD4680BC704700BF2F
:1013B00080B487B000AF786000233B61FB7C43F0D2
:1013C000C003FB74BB7C012262F3C403BB743B7C8F
:1013D000182262F306033B747B685B6D3A691A61FD
:1013E0007B68DB78012B16D10023FB607B685B6D8B
:1013F0007A6802F5B9625A617B685B6D1B68FB60B5
:10140000FB7B43F08003FB734FF08023FB607B6822
:101410005B6DFA681A6000BF1C37BD4680BC704720
:1014200080B485B000AF78607B689B7A002B1BD0BE
:101430007B681B699B68FB603B7B03F00103DBB2AD
:10144000002B11D07B6803F586731B68BB603B7A69
:101450006FF341033B723B7A6FF300033B727B688F
:10146000D3F80C31BA681A6000BF1437BD4680BC8F
:10147000704700BF80B400AF00BFBD4680BC70475E
:1014800080B483B000AF0346FB71FB79002B02D020
:10149000012B02D002E000BF00E000BF00BF0C370C
:1014A000BD4680BC704700BF80B400AF00BFBD46E2
:1014B00080BC704780B400AF00BFBD4680BC7047A1
:1014C00080B400AF00BFBD4680BC704780B400AFA1
:1014D00000BFBD4680BC704780B400AF00BFBD46B2
:1014E00080BC704780B582B000AF104B7B60104B62
:1014F0003B6007E03B681A1D3A607A68111D79600D
:1015000012681A603B680B4A9342F3D30A480B49AE
:101510004FF000028842B8BF40F8042BFADB00F01D
:10152000C9FC00BF0837BD4680BD00BF5257000848
:10153000000000203401002034010020B4100020FD
:1015400080B400AFFEE700BF80B584B000AFF860A4
:101550007A603B600B46FB72F86801F0CFFAF868DE
:1015600000F01EF8FB683A68C3F8E025FB68BA692A
:10157000C3F8E425FB687A68C3F8E825FB7A1946C6
:10158000F86803F0D3FBFB68D3F8E4351B68984791
:10159000F86801F00BFB00BF1037BD4680BD00BFEF
:1015A00080B483B000AF7860002318460C37BD4686
:1015B00080BC704780B584B000AF786007F1080345
:1015C0001946786801F010FF3B7A03F01F03012BE6
:1015D0000AD0022B0FD0002B14D107F108031946B3
:1015E000786801F031FB16E007F1080319467868C6
:1015F00001F07AFB0FE007F108031946786801F063
:10160000A7FB08E03B7A23F07F03DBB2194678683A
:1016100003F018FD00BF002318461037BD4680BDFB
:1016200080B584B000AF78600B46FB70FB78002B70
:1016300044D17B6803F55C73FB607B6893F81131E0
:10164000032B4ED1FB68DA69FB689B689A4220D96C
:10165000FB68DA69FB689B68D21AFB68DA617B6811
:10166000DB78012B06D1FB68DA68FB689B681A44BB
:10167000FB68DA60FB68D968FB689A68FB68DB691D
:10168000934228BF13469BB21A46786803F036FF90
:1016900027E07B68D3F8E0351B69002B0AD07B6814
:1016A00093F81231032B05D17B68D3F8E0351B6921
:1016B00078689847786803F035FF12E07B68D3F8C4
:1016C000E0359B69002B0CD07B6893F81231032B1B
:1016D00007D17B68D3F8E0359B69FA7811467868C2
:1016E0009847002318461037BD4680BD80B584B0AA
:1016F00000AF78600B46FB70FB78002B5FD17B68F6
:1017000003F58C73FB607B6893F81131022B69D170
:10171000FB68DA69FB689B689A421BD9FB68DA6947
:10172000FB689B68D21AFB68DA617B68DB78012B67
:1017300006D1FB68DA68FB689B681A44FB68DA60CC
:10174000FB68D968FB68DB699BB21A46786803F0CE
:10175000A1FE47E0FB681B6AFA689268B3FBF2F1EE
:1017600002FB01F29B1A002B14D1FB681A6AFB687A
:101770009B689A420ED3FB681A6AFB685B6A9A42BE
:1017800008D200220021786803F084FEFB68002262
:101790005A6227E07B68D3F8E035DB68002B0AD07B
:1017A0007B6893F81231032B05D17B68D3F8E035C1
:1017B000DB6878689847786803F0CCFE12E07B68B5
:1017C000D3F8E0355B69002B0CD07B6893F81231BD
:1017D000032B07D17B68D3F8E0355B69FA781146B3
:1017E00078689847002318461037BD4680BD00BF73
:1017F00080B582B000AF7860002340220021786875
:1018000003F016FB002340228021786803F010FBD0
:101810007B68012283F812217B68D3F8E4355B688A
:101820007A68927810469847002318460837BD46D4
:1018300080BD00BF80B582B000AF78607B68D3F810
:10184000E4351B6998477B68032283F81221002343
:1018500018460837BD4680BD80B582B000AF7860BD
:101860007B68042283F812217B68D3F8E435DB68B7
:101870009847002318460837BD4680BD80B582B022
:1018800000AF78607B68D3F8E035DB69002B05D0CA
:101890007B68D3F8E035DB69786898470023184601
:1018A0000837BD4680BD00BF80B582B000AF78600C
:1018B0000B46FB707B68D3F8E0351B68FA7811465D
:1018C000786898477B68D3F8E4359B68984700238D
:1018D00018460837BD4680BD80B582B000AF78603D
:1018E0000B46FB707B68D3F8E0355B68FA781146ED
:1018F00078689847002318460837BD4680BD00BF6A
:1019000080B582B000AF78607B68D3F8E0351B6AA1
:1019100078689847002318460837BD4680BD00BF49
:1019200080B582B000AF78607B68D3F8E0355B6A41
:1019300078689847002318460837BD4680BD00BF29
:1019400080B58AB000AF07F12003184600F08AFE88
:1019500010233B62012387F82430022387F82730C5
:10196000002387F82630022387F8253001210B2039
:1019700000F082FC07F120031946464800F0E4FD20
:10198000022387F82430012387F826304FF41073A0
:101990003B62002387F82730022387F8253007F1C0
:1019A000200319463C4800F0CFFD042206213A48A6
:1019B00000F0A8FE04220921374800F0A3FE01210F
:1019C0004FF4021000F094FC012000F09BFB002378
:1019D00087F826304FF4A4533B6207F120031946E1
:1019E0002E4800F0B1FD10233B6207F12003194699
:1019F0002B4800F0A9FD06220421294800F082FEB0
:101A000006220721254800F07DFE06220A212348F0
:101A100000F078FE06220C21204800F073FE102111
:101A20001C4800F061FE1F4802F018FD4BF68033A1
:101A3000BB614FF40073FB820023BB824FF4007341
:101A40003B8200237B820023BB8307F110031946EE
:101A5000144802F081FD144802F0CEFE134B3B60A7
:101A60000023BB8033233B814FF480637B814FF4A1
:101A70008043BB814BF6FF73FB8001210A4802F0D3
:101A8000B7FF3B461946084802F0F0FE00BF283772
:101A9000BD4680BD000C0240000402400008024028
:101AA00000000240003C004000540040A0860100BD
:101AB00080B584B000AFFF23FB721021544800F0C2
:101AC00005FE544BFB6002E0FB68013BFB60FB68DA
:101AD000002BF9D10D233B7101237B713B1D0221AA
:101AE000184600F099F800233B7199237B713B1D48
:101AF0000221184600F090F847233B7180237B7148
:101B00003B1D0221184600F087F8322000F0E0F873
:101B10000346FB7232233B71FB7A63F07F03DBB237
:101B20007B713B1D0221184600F076F8322000F050
:101B3000CFF80346FB7232233B71FB7A03F07F033D
:101B4000DBB27B713B1D0221184600F065F80023D3
:101B50003B7100237B713B1D0221184600F05CF8AD
:101B600004233B71AF237B713B1D0221184600F01B
:101B700053F80D233B7170237B713B1D02211846E6
:101B800000F04AF805233B7181237B713B1D022144
:101B9000184600F041F806233B7107237B713B1D7B
:101BA0000221184600F038F80A233B7100237B71AC
:101BB0003B1D0221184600F02FF827233B7100231C
:101BC0007B713B1D0221184600F026F89A233B71D9
:101BD0000A237B710A23BB713B1D0321184600F0C9
:101BE0001BF81F233B710F237B713B1D02211846FD
:101BF00000F012F802233B719E237B713B1D0221F2
:101C0000184600F009F800BF1037BD4680BD00BF80
:101C1000000C024040420F0080B584B000AF7860F5
:101C20000B46FB700023FB7300BF4FF400312348C9
:101C300002F0CAFF0346002BF7D101211F4802F032
:101C4000F7FE00BF1E491D4802F0BEFF0346002BF1
:101C5000F8D000229421194802F02AFF00BF194948
:101C6000164802F081FF0346002BF8D012E0FB7B00
:101C70007A6813441B781946104802F057FFFB7B23
:101C80000133FB7300BF10490C4802F06DFF03469F
:101C9000002BF8D0FA7BFB789A42E8D300BF0B49BF
:101CA000064802F091FF0346002BF8D001210348BB
:101CB00002F0DEFE00BF1037BD4680BD005400407C
:101CC00001000010820007008000070004000010DF
:101CD00080B584B000AF0346FB710023FB7300BFE7
:101CE0004FF40031354802F06FFF0346002BF7D167
:101CF0000121324802F09CFE00BF31492F4802F01A
:101D000063FF0346002BF8D0002294212B4802F0F9
:101D1000CFFE00BF2B49294802F026FF0346002BC7
:101D2000F8D0FB791946254802F000FF00BF26498C
:101D3000224802F019FF0346002BF8D001211F486A
:101D400002F096FE00BF4FF400311C4802F03CFF49
:101D50000346002BF7D10021184802F0C7FE0121ED
:101D6000164802F065FE00BF1549144802F02CFF2A
:101D70000346002BF8D001229421104802F098FE6F
:101D800000BF12490D4802F0EFFE0346002BF8D0C9
:101D900000BF0F49094802F0E7FE0346002BF8D0C8
:101DA000064802F0D3FE0346FB730121034802F00C
:101DB0005FFEFB7B18461037BD4680BD00540040D7
:101DC00001000010820007008000070002000300ED
:101DD0004000030080B586B002AF0723BB7200232A
:101DE000FB7240233B7200237B7200233B7307F19D
:101DF0000803184603F0B8F90121082000F03CFA66
:101E00004FF470433B6001233B710023BB710323FC
:101E10007B710023FB713B4619460F4800F094FB91
:101E200001233B6000233B710023BB7103237B71C3
:101E30000023FB713B461946084800F085FB084B20
:101E40000093084B084A01210848FFF77DFB00BFBB
:101E50001037BD4680BD00BF000C024000000240AC
:101E60000000002004010020600000206C01002020
:101E700080B500AF024801F07FFB00BF80BD00BF0E
:101E80006C01002080B500AF084B9B7A002B0AD074
:101E9000074A074B1B6823F00603136000F086FD1A
:101EA0000248FFF7BDFA00BF80BD00BF6C010020F3
:101EB00010ED00E080B588B000AF00F077FD0023A2
:101EC000FB6102E0FB690133FB61FB69B3F57A7FDB
:101ED000F8DBFFF77FFF0121082000F0CDF9814BEF
:101EE0004FF400421A607F4B01221A717D4B002291
:101EF0009A717C4B02225A717A497B4800F024FB8C
:101F00000121042000F0B8F9FFF71AFDFFF7D0FD1A
:101F10000121764802F01AFC0121012000F0E8F9C5
:101F200044F620633B610023FB816423BB810023D3
:101F3000BB820023BB7507F10C0319464FF08040AC
:101F400003F020FB01214FF0804003F091FB684A31
:101F50003B461068516803C312891A800122292167
:101F6000644803F057F901222B21634803F052F92A
:101F70004FF0804003F070FB0346BB615D4B1B7864
:101F80005BB21E2B19DD5D4B41221A704FF480416C
:101F9000554800F09BFB4FF43041534800F0A4FB40
:101FA0000221524802F00CFC0346002B05D03B46B0
:101FB0009BB219464D4802F0F5FB4F4B1B785BB2C4
:101FC00013F11E0F19DA4D4B57221A704FF40041CE
:101FD000454800F07BFB4FF4E041434800F084FBB0
:101FE0000221424802F0ECFB0346002B05D03B46A1
:101FF0009BB219463D4802F0D5FB3E4B1B785BB2C5
:1020000013F11E0F19DA3D4B44221A704FF4805120
:10201000354800F05BFB4FF46041334800F064FB4F
:102020000221324802F0CCFB0346002B05D03B4690
:102030009BB219462D4802F0B5FB2E4B1B785BB2C4
:1020400013F11D0F12DB2B4B1B785BB21D2B0DDC2C
:10205000294B1B785BB213F11D0F07DB264B1B7856
:102060005BB21D2B02DC254B58221A70224B1B78C9
:102070005BB21E2B19DD214B53221A704FF4005115
:10208000194800F023FB4FF45041174800F02CFB97
:102090000221164802F094FB0346002B05D03B4674
:1020A0009BB21946114802F07DFB0121144800F053
:1020B000F3FA0346002B07D0104B42221A704FF45C
:1020C0007041094800F002FBBB69FA2B03D10121E2
:1020D0000A4800F0F7FB4FF47041034800F004FB9E
:1020E0003CE700BF64010020000C0240003C0040BF
:1020F000B056000860010020610100204C00002063
:102100000000024080B483B000AF0346FB71044A74
:10211000FB79136000BF0C37BD4680BC704700BF21
:102120006800474280B489B000AF78600023BB618B
:1021300000237B610023FB6102233B610023FB60E2
:102140000223BB60484B9B6803F00C03BB61BB6977
:10215000042B07D0082B09D0002B3FD17B68434AC2
:102160001A603FE07B68424A1A603BE03E4B5B6886
:1021700003F480039B0DFB603B4B5B6803F03F0364
:10218000BB60FB68002B0DD0394ABB68B2FBF3F291
:10219000354B596847F6C0730B409B0903FB02F3AC
:1021A000FB610CE0314ABB68B2FBF3F22E4B59687D
:1021B00047F6C0730B409B0903FB02F3FB612A4BFC
:1021C0005B6803F440331B0C01335B003B61FA692D
:1021D0003B69B2FBF3F27B681A6003E07B68234A39
:1021E0001A6000BF204B9B6803F0F003BB61BB6922
:1021F0001B09BB611F4ABB6913441B78DBB27B61BF
:102200007B681A687B69DA407B685A60164B9B686A
:1022100003F4E053BB61BB699B0ABB61154ABB6910
:1022200013441B78DBB27B617B685A687B69DA40B8
:102230007B689A600C4B9B6803F46043BB61BB698D
:102240005B0BBB610B4ABB6913441B78DBB27B6140
:102250007B685A687B69DA407B68DA6000BF2437A4
:10226000BD4680BC704700BF003802400024F40027
:1022700040787D015000002080B483B000AF7860CA
:102280000B46FB70FB78002B06D00949084B1A6BF4
:102290007B6813430B6306E00549054B1A6B7B68AB
:1022A000DB4313400B6300BF0C37BD4680BC704757
:1022B0000038024080B483B000AF78600B46FB70FA
:1022C000FB78002B06D00949084B5A6B7B681343F7
:1022D0004B6306E00549054B5A6B7B68DB431340B3
:1022E0004B6300BF0C37BD4680BC704700380240CE
:1022F00080B483B000AF78600B46FB70FB78002B96
:1023000006D00949084B1A6C7B6813430B6406E03E
:102310000549054B1A6C7B68DB4313400B6400BF17
:102320000C37BD4680BC70470038024080B483B093
:1023300000AF78600B46FB70FB78002B06D0094994
:10234000084B5A6C7B6813434B6406E00549054B08
:102350005A6C7B68DB4313404B6400BF0C37BD46AF
:1023600080BC70470038024080B483B000AF786012
:102370000B46FB70FB78002B06D00949084B1A6A04
:102380007B6813430B6206E00549054B1A6A7B68BC
:10239000DB4313400B6200BF0C37BD4680BC704767
:1023A0000038024080B483B000AF78600B46FB7009
:1023B000FB78002B06D00949084B5A6A7B68134307
:1023C0004B6206E00549054B5A6A7B68DB431340C4
:1023D0004B6200BF0C37BD4680BC704700380240DE
:1023E00080B483B000AF03463960FB713B681222B2
:1023F0001A80034B18460C37BD4680BC704700BF9F
:102400007C00002080B483B000AF03463960FB71CC
:102410003B6804221A80034B18460C37BD4680BC2B
:10242000704700BF9C00002080B582B000AF03461B
:102430003960FB71FB79002B05D13A6807490848E0
:1024400001F03EF804E03A680449064801F038F823
:10245000024B18460837BD4680BD00BFF407002078
:10246000BC560008E056000880B582B000AF0346B5
:102470003960FB713A680449044801F021F8024BC5
:1024800018460837BD4680BDF407002004570008F1
:1024900080B582B000AF03463960FB71FB79002B39
:1024A00005D13A680749084801F00AF804E03A689B
:1024B0000449064801F004F8024B18460837BD46A7
:1024C00080BD00BFF40700201857000828570008F7
:1024D00080B582B000AF03463960FB71FB79002BF9
:1024E00005D13A680749084800F0EAFF04E03A6875
:1024F0000449054800F0E4FF024B18460837BD4682
:1025000080BD00BFF40700203857000880B582B0B6
:1025100000AF03463960FB71FB79002B05D13A68A7
:102520000749084800F0CCFF04E03A680449054830
:1025300000F0C6FF024B18460837BD4680BD00BFFD
:10254000F40700204457000880B487B000AF7860DB
:10255000396000237B6100233B610023FB60002383
:102560007B6176E001227B6902FA03F33B613B6801
:102570001A683B691340FB60FA683B699A4265D16F
:102580007B681A687B695B00032101FA03F3DB4374
:102590001A407B681A607B681A683B681B79194689
:1025A0007B695B0001FA03F31A437B681A603B689E
:1025B0001B79012B03D03B681B79022B2ED17B6842
:1025C0009A687B695B00032101FA03F3DB431A403D
:1025D0007B689A607B689A683B685B7919467B697F
:1025E0005B0001FA03F31A437B689A607B685A68C0
:1025F0007B699BB2012101FA03F3DB431A407B683C
:102600005A607B685A683B689B7919467B699BB224
:1026100001FA03F39BB21A437B685A607B68DA685D
:102620007B699BB25B00032101FA03F3DB431A4091
:102630007B68DA607B68DA683B68DB7919467B691E
:102640005B0001FA03F31A437B68DA607B690133AC
:102650007B617B690F2B85D900BF1C37BD4680BCD1
:10266000704700BF80B483B000AF78607B684FF6DE
:10267000FF721A607B6800221A717B6800225A710F
:102680007B6800229A717B680022DA7100BF0C37E8
:10269000BD4680BC704700BF80B485B000AF786095
:1026A0000B467B800023FB737B681A697B88134091
:1026B000002B02D00123FB7301E00023FB73FB7BA3
:1026C00018461437BD4680BC704700BF80B483B045
:1026D00000AF78600B467B807B687A881A8300BFE6
:1026E0000C37BD4680BC704780B483B000AF7860C3
:1026F0000B467B807B687A885A8300BF0C37BD46C7
:1027000080BC704780B485B000AF78600B467B809A
:1027100013467B700023FB600023BB607A787B88C4
:1027200003F007039B0002FA03F3FB607B88DB08DE
:102730009BB218467B88DB089BB21A467B6808323E
:1027400053F822207B8803F007039B000F2101FA36
:1027500003F3DB4302EA03017B6800F1080243F85C
:1027600022107B88DB089BB21A467B68083253F83C
:102770002220FB681343BB607B88DB089BB21A46B0
:102780007B680832B96843F8221000BF1437BD4691
:1027900080BC704780B400AF00231846BD4680BCA3
:1027A000704700BF80B400AF00231846BD4680BC10
:1027B000704700BF80B485B000AFF860B9607A6040
:1027C000FB68232B74D801A252F823F0B12800082B
:1027D000B1280008B1280008B1280008B128000875
:1027E000B1280008B1280008B1280008B128000865
:1027F000B1280008B1280008B1280008B128000855
:10280000B1280008B1280008B1280008B128000844
:10281000B1280008B1280008B1280008B128000834
:10282000B1280008B1280008B1280008B128000824
:10283000B1280008B1280008B1280008B128000814
:10284000B1280008B1280008B1280008B128000804
:102850005D280008B1280008B1280008184B1B6843
:10286000DAB2BB681A70BB680133154A1268120AE3
:10287000D2B21A70BB680233114A1268120CD2B27B
:102880001A70BB6803330E4A1268120ED2B21A7065
:10289000BB6804330A4A12791A70BB680533084AC8
:1028A00052791A70BB680633054A92791A7000E0B3
:1028B00000BF002318461437BD4680BC704700BFD8
:1028C000A000002080B582B000AF786039603B681E
:1028D0001946786800F004F800BF0837BD4680BD8F
:1028E00080B485B000AF786039600023FB6017E0EA
:1028F000104B1B687968FA680A4411780E4AD15463
:102900000C4B1B6801330B4A1360FB680133FB60FF
:10291000084B1B68B3F5006F02D1064B00221A600A
:10292000FA683B689A42E3D3002318461437BD4641
:1029300080BC704748010020B408002080B485B0F6
:1029400000AF786039600023FB601EE0144B1B6809
:102950007968FA680A441178124AD154104B1B68FE
:1029600001330F4A13600E4B1B68802B02D10C4BB6
:1029700000221A600A4B1A680B4B1B689A4201D15D
:10298000022307E0FB680133FB60FA683B689A4268
:10299000DCD3002318461437BD4680BC704700BF07
:1029A000F00700205C070020DC07002080B500AFA6
:1029B000124A124B1B6843F0010313600F4B0022B5
:1029C0009A600E4A0D4B1B6823F0847323F4803306
:1029D00013600A4B0A4A5A60084A084B1B6823F4E2
:1029E00080231360054B0022DA6000F00DF8054BE0
:1029F0004FF000629A6000BF80BD00BF0038024007
:102A00001030002400ED00E080B483B000AF00235C
:102A10007B6000233B60354A344B1B6843F48033B2
:102A20001360324B1B6803F400333B607B68013357
:102A30007B603B68002B03D17B68B3F5A06FF0D1BE
:102A40002A4B1B6803F40033002B02D001233B60A8
:102A500001E000233B603B68012B42D1234A234B1A
:102A60001B6C43F080531364214A214B1B6843F4D1
:102A7000804313601D4A1D4B9B6893601B4A1B4B90
:102A80009B6843F400439360184A184B9B6843F4D7
:102A9000A0539360154B174A5A60144A134B1B6896
:102AA00043F08073136000BF104B1B6803F000738A
:102AB000002BF9D0104B40F205621A600B4A0B4B09
:102AC0009B6823F003039360084A084B9B6843F01C
:102AD0000203936000BF054B9B6803F00C03082BB7
:102AE000F9D100BF0C37BD4680BC704700380240AA
:102AF0000070004008544007003C024080B584B09C
:102B000000AF786001210120FFF7B6FB4FF4D853E6
:102B1000BB6003237B7302233B730023BB7300233F
:102B2000FB7307F1080319461F48FFF70DFD0A2242
:102B300008211D48FFF7E6FD0A2209211A48FFF780
:102B4000E1FD0A220B211848FFF7DCFD0A220C21C7
:102B50001548FFF7D7FD4FF48063BB600123BB73BB
:102B60000123FB7303237B7307F1080319460E4807
:102B7000FFF7EAFC0A220A210B48FFF7C3FD0121F7
:102B80004FF48040FFF7D2FB01218020FFF792FB3A
:102B900001214FF08050FFF7E7FB012002F046F8DB
:102BA00000BF1037BD4680BD0000024080B584B034
:102BB00000AF78604FF4C06002F046F843233B73E7
:102BC00001237B730323BB730123FB7307F10C0306
:102BD000184602F04BF800BF1037BD4680BD00BF5D
:102BE00080B485B000AF78600023FB607A6813463C
:102BF0001B019B1ADB001A460A4BA3FB0213D21AD5
:102C0000520813449B08BB60FB680133FB60FA6801
:102C1000BB689A4200D8F7E700BF1437BD4680BCB6
:102C2000704700BF2549922480B582B000AF78601C
:102C30007B684FF47A7202FB03F31846FFF7D0FF6C
:102C400000BF0837BD4680BD80B584B000AF786056
:102C500039600023FB733B685B78092B39D801A2EC
:102C600052F823F0B52C0008C92C0008D32C00081A
:102C7000BF2C0008D32C0008972C00088D2C0008CE
:102C8000D32C0008AB2C0008A12C00083968786808
:102C900000F036F922E03968786800F005FA1DE0A6
:102CA0003968786800F03EFA18E03968786800F012
:102CB000B3FA13E03968786800F0DEFA0EE039689C
:102CC000786800F001FB09E03968786800F064FB7F
:102CD00004E03968786800F0CFFB00BFFB7B184642
:102CE0001037BD4680BD00BF80B584B000AF7860AE
:102CF00039600023FB737B6893F81231032B1BD1DF
:102D00003B689B88DBB2012B11D87B68D3F8E03598
:102D10009B683968786898473B68DB88002B10D13E
:102D2000FB7B002B0DD1786802F0FCFB09E03968D1
:102D3000786800F0A1FB04E03968786800F09CFB3B
:102D400000E000BFFB7B18461037BD4680BD00BFCA
:102D500080B584B000AF786039600023FB733B68B6
:102D60009B88BB733B685B78012B39D0032B02D067
:102D7000002B6CD0BDE07B6893F81231022B02D09F
:102D8000032B0CD025E0BB7B002B27D0BB7B802BFB
:102D900024D0BB7B1946786802F054F91EE03B68EA
:102DA0005B88002B0AD1BB7B002B07D0BB7B802B21
:102DB00004D0BB7B1946786802F044F97B68D3F8ED
:102DC000E0359B68396878689847786802F0AAFB14
:102DD00005E03968786800F04FFB00E000BF88E04C
:102DE0007B6893F81231022B02D0032B0CD025E024
:102DF000BB7B002B27D0BB7B802B24D0BB7B194611
:102E0000786802F01FF91EE03B685B88002B1CD13C
:102E1000BB7B002B0ED0BB7B802B0BD0BB7B194622
:102E2000786802F049F97B68D3F8E0359B68396827
:102E300078689847786802F075FB06E0396878682A
:102E400000F01AFB02E000BF53E000BF51E07B68D6
:102E500093F81231022B02D0032B0CD042E0BB7B43
:102E6000002B44D0BB7B802B41D0BB7B19467868BC
:102E700002F0E8F83BE0BB7B5BB2002B15DABB7BD2
:102E800003F07F02796813469B001344DB000B4478
:102E900003F58D731B78002B03D0184B01221A60A9
:102EA0001AE0164B00221A6016E0BB7B5BB2002BC7
:102EB00012DBBA7B796813469B001344DB000B449A
:102EC00003F272331B78002B03D00C4B01221A60E3
:102ED00002E00A4B00221A6002220849786802F0D8
:102EE000B9FA05E03968786800F0C6FA00E000BF7A
:102EF00000BFFB7B18461037BD4680BD3401002063
:102F000080B584B000AF786039603B685B881B0A8D
:102F10009BB2013B062B00F2A98001A252F823F0DC
:102F20003D2F00086D2F0008952F00086D30000818
:102F30006D30000859300008633000087B68D3F812
:102F4000E8351B687A68927807F10A0110469847BD
:102F5000F8603B68DB88402B05D07B6893F8123122
:102F6000012B40F0888008237B8184E07B68D3F8C4
:102F7000E0359B6A7A68927807F10A011046984713
:102F8000F860FB68013302221A707B68FA68C3F8A4
:102F9000EC2571E03B685B88DBB2052B56D801A2BB
:102FA00052F823F0BD2F0008D52F0008ED2F0008A0
:102FB000053000081D300008353000087B68D3F864
:102FC000E8355B687A68927807F10A0110469847FD
:102FD000F86040E07B68D3F8E8359B687A689278BF
:102FE00007F10A0110469847F86034E07B68D3F88F
:102FF000E835DB687A68927807F10A01104698474D
:10300000F86028E07B68D3F8E8351B697A68927825
:1030100007F10A0110469847F8601CE07B68D3F876
:10302000E8355B697A68927807F10A01104698479B
:10303000F86010E07B68D3F8E8359B697A6892788D
:1030400007F10A0110469847F86004E0396878688B
:1030500000F012FA25E00FE03968786800F00CFA09
:103060001FE03968786800F007FA1AE03968786874
:1030700000F002FA15E000BF7B89002B11D03B68FD
:10308000DB88002B0DD03B68DA887B89934228BF10
:1030900013469BB27B817B891A46F968786802F0F7
:1030A000D9F91037BD4680BD80B584B000AF7860D7
:1030B00039603B689B88002B2CD13B68DB88002B58
:1030C00028D13B685B88DBB203F07F03FB737B682E
:1030D00093F81231032B04D13968786800F0CCF9E9
:1030E0001CE07B68FA7B83F81321FB7B1946786828
:1030F00002F01CF8786802F015FAFB7B002B04D074
:103100007B68022283F8122108E07B68012283F8A1
:10311000122103E03968786800F0AEF900BF10377B
:10312000BD4680BD80B582B000AF786039603B6835
:103130005B88DAB2374B1A70364B1B78012B04D9F7
:103140003968786800F098F95FE07B6893F812318D
:10315000022B02D0032B1BD052E02E4B1B78002BEE
:1031600012D02C4B1A787B6883F810217B680322DD
:1031700083F81221274B1B7819467868FEF794FBD9
:10318000786802F0CFF940E0786802F0CBF93CE0D3
:10319000204B1B78002B12D17B68022283F812216E
:1031A0001C4B1A787B6883F810211A4B1B78194640
:1031B0007868FEF791FB786802F0B4F925E07B6847
:1031C00093F81021134B1B789A4215D07B6893F823
:1031D000103119467868FEF77FFB0E4B1A787B6832
:1031E00083F810210B4B1B7819467868FEF75CFBBF
:1031F000786802F097F908E0786802F093F904E043
:103200003968786800F038F900BF00BF0837BD465C
:1032100080BD00BF4001002080B582B000AF786063
:1032200039603B68DB88012B04D03968786800F08E
:1032300023F91BE07B6893F81231022B02D0032B99
:1032400006D00EE001220B49786802F003F90DE088
:103250007B6803F5887301221946786802F0FAF852
:1032600004E03968786800F007F900BF00BF08374C
:10327000BD4680BD3801002080B582B000AF7860C7
:1032800039607B6893F81231023B012B11D87B68BF
:10329000D3F81431002B03D00A4B03221A6002E04A
:1032A000084B01221A6001220649786802F0D2F820
:1032B00004E03968786800F0DFF800BF00BF083725
:1032C000BD4680BD3C01002080B584B000AF786071
:1032D00039600023FB733B685B88012B0ED17B6850
:1032E0000122C3F814217B68D3F8E0359B68396864
:1032F00078689847786802F015F948E03B685B8881
:10330000022B44D13B689B88DBB2002B3FD17B680A
:103310001B695B68BB603B689B881B0A9BB2FB73A5
:10332000FB7B013B042B2BD801A252F823F000BFFA
:1033300045330008513300085D3300086933000845
:10334000753300083B7A012262F306133B7217E0E3
:103350003B7A022262F306133B7211E03B7A0322AE
:1033600062F306133B720BE03B7A042262F306130E
:103370003B7205E03B7A052262F306133B7200BF05
:103380007B681B69BA685A60786802F0CBF800BFA6
:103390001037BD4680BD00BF80B582B000AF7860F9
:1033A00039607B6893F81231023B012B12D83B68DD
:1033B0005B88012B13D17B680022C3F814217B6842
:1033C000D3F8E0359B68396878689847786802F0E8
:1033D000A9F804E03968786800F04EF800E000BF12
:1033E00000BF0837BD4680BD80B483B000AF7860B1
:1033F00039607B6893F8C8253B681A707B6893F83E
:10340000C9253B685A707B6893F8CA359AB27B68C5
:1034100093F8CB359BB21B029BB213449AB23B6824
:103420005A807B6893F8CC359AB27B6893F8CD3597
:103430009BB21B029BB213449AB23B689A807B6892
:1034400093F8CE359AB27B6893F8CF359BB21B02C6
:103450009BB213449AB23B68DA803B68DB881A4619
:103460007B68C3F83C217B68012283F8112100BFEF
:103470000C37BD4680BC704780B582B000AF786025
:1034800039603B681B78DBB25BB2002B04DA802129
:10349000786801F0D7FD0CE03B68DB88002B04D195
:1034A0008021786801F0CEFD03E00021786801F00A
:1034B000C9FD7868FDF77CFF00BF0837BD4680BDB9
:1034C00080B586B000AFF860B9607A600023FB7504
:1034D000FB68002B33D0F86800F036F80346013360
:1034E0009BB25B009AB27B681A80FB7D5A1CFA750E
:1034F0001A46BB6813447A681288D2B21A70FB7DF0
:103500005A1CFA751A46BB68134403221A7012E05B
:10351000FB7D5A1CFA751A46BB681A44FB68591C95
:10352000F9601B781370FB7D5A1CFA751A46BB684C
:10353000134400221A70FB681B78002BE8D100BFEF
:103540001837BD4680BD00BF80B485B000AF78603D
:103550000023FB7305E0FB7B0133FB737B680133C6
:103560007B607B681B78002BF5D1FB7B18461437FA
:10357000BD4680BC704700BF80B586B000AF7860A4
:1035800000237B617868FDF755F90346002B00F0B6
:103590009C807868FDF760F903463B613B69002B2E
:1035A00001D1002392E0BB7C03F00803DBB2002BC7
:1035B00006D0786800F012FA02467B6913437B61FB
:1035C000BB7C03F00403DBB2002B06D0786800F06C
:1035D0000FF902467B6913437B613B7C03F00203D6
:1035E000DBB2002B09D00023FB603B7B43F00203DE
:1035F0003B737B68DB68FA685A61FB7C23F07F03CE
:10360000DBB2002B06D0786800F064F802467B69D4
:1036100013437B617B7C03F00803DBB2002B06D0F5
:10362000786800F097F802467B6913437B613B7C26
:1036300003F00803DBB2002B06D0786800F08AFAAA
:1036400002467B6913437B613B7C03F01003DBB2D2
:10365000002B06D0786800F097FA02467B69134386
:103660007B617B7C03F01003DBB2002B06D0786813
:1036700000F07EFB02467B6913437B617B7C03F099
:103680002003DBB2002B06D0786800F00DFC024668
:103690007B6913437B61BB7C03F01003DBB2002B1F
:1036A00006D0786800F03CFC02467B6913437B61DE
:1036B000BB7C03F02003DBB2002B06D0786800F05F
:1036C00049FC02467B6913437B617B6918461837C6
:1036D000BD4680BD80B586B000AF78607B689B7AC0
:1036E000002B11D07B6803F586731B68FB603B7B66
:1036F0006FF341033B733B7B6FF300033B737B68CA
:10370000D3F80C31FA681A6000233B613B7C43F02C
:1037100001033B747B681B697A68126951683A69D6
:10372000D2430A405A600A4B1B689B6978689847E5
:1037300000237B61FB7D43F08003FB757B68DB68C6
:103740007A695A61012318461837BD4680BD00BF0B
:103750004800002080B586B000AF7860224B1B681F
:103760005B69786898477B681B699B68FB600023EE
:103770007B617B7D43F008037B757B68DB687A693E
:103780005A617B689B7A002B29D03B7B03F00103B5
:10379000DBB2002B23D000233B613B7C43F00103D1
:1037A0003B747B68D3F80C317A68D2F80C2111682D
:1037B0003A690A431A603B7C43F002033B747B681E
:1037C000D3F80C317A68D2F80C2111683A690A43AF
:1037D0001A60064A054B1B6943F006031361012377
:1037E00018461837BD4680BD4800002000ED00E0B7
:1037F00080B586B000AF786000233B610023BB60DA
:103800007868FDF7BFFD7861DCE07B6903F00103B8
:10381000002B00F0D1803B69DBB21946786800F0DC
:10382000B3FB0346BB603B7A03F00103DBB2002B22
:1038300032D001223B6902FA03F3FB607B681B690B
:103840007A681269516BFA68D2430A405A630023BE
:10385000BB603B7A43F001033B727A683B690433F7
:103860009B0013449B68BA689A605B4B1B685B685B
:103870003A69D2B21146786898477B68DB78012BA9
:103880000AD13B69002B07D17B6893F81131042BD7
:1038900002D17868FDF78CFD3B7A03F00403DBB2BC
:1038A000002B0DD00023BB603B7A43F004033B7236
:1038B0007A683B6904339B0013449B68BA689A603A
:1038C0003B7A03F00803DBB2002B0DD00023BB6072
:1038D0003B7A43F008033B727A683B6904339B00F0
:1038E00013449B68BA689A603B7A03F01003DBB21A
:1038F000002B0DD00023BB603B7A43F010033B72DA
:103900007A683B6904339B0013449B68BA689A60E9
:103910003B7A03F02003DBB2002B0DD00023BB6009
:103920003B7A43F020033B727A683B6904339B0087
:1039300013449B68BA689A603B7A03F04003DBB299
:10394000002B0DD00023BB603B7A43F040033B7259
:103950007A683B6904339B0013449B68BA689A6099
:103960003B7A03F00203DBB2002B0DD00023BB60D7
:103970003B7A43F002033B727A683B6904339B0055
:1039800013449B68BA689A603B7A23F07F03DBB2EA
:10399000002B11D03969786800F078F90023BB60FA
:1039A0003B7A43F080033B727A683B6904339B00A7
:1039B00013449B68BA689A603B6901333B617B6939
:1039C0005B087B617B69002B7FF41FAF01231846E6
:1039D0001837BD4680BD00BF4800002080B586B0C6
:1039E00000AF786000233B610023FB607868FDF73F
:1039F00099FC7861A3E07B6903F00103002B00F0E0
:103A000098803B69DBB219467868FDF7A1FC034654
:103A1000FB603B7B03F00103DBB2002B48D00023AB
:103A2000FB603B7B43F001033B737A683B691433D3
:103A30009B0013445B68FA689A607B68DB78012B13
:103A40001FD17A683B6914339B0013445B681B6980
:103A5000BB6079683A6913469B001344DB000B4452
:103A600003F55E731B68BA68C2F31202991A78688C
:103A70003A6913469B001344DB00034403F5627369
:103A80001960334B1B681B683A69D2B211467868DB
:103A900098477B68DB78012B0AD13B69002B07D163
:103AA0007B6893F81131052B02D17868FDF780FC13
:103AB0003B7B03F00203DBB2002B0DD00023FB6045
:103AC0003B7B43F002033B737A683B6914339B00F2
:103AD00013445B68FA689A603B7B03F00403DBB233
:103AE000002B0DD00023FB603B7B43F004033B73B2
:103AF0007A683B6914339B0013445B68FA689A60E8
:103B00003B7B03F00803DBB2002B12D0104B1B6889
:103B10009B68786898470023FB603B7B43F0080371
:103B20003B737A683B6914339B0013445B68FA6803
:103B30009A603B6901333B617B695B087B617B6910
:103B4000002B7FF458AF012318461837BD4680BDBF
:103B50004800002080B584B000AF7860094B1B6836
:103B6000DB68786898470023FB603B7B43F00803E1
:103B70003B737B68DB68FA685A610123184610378B
:103B8000BD4680BD4800002080B586B000AF78609B
:103B900000233B613B7C43F010033B747B68DB6894
:103BA0007A68D26891693A69D2430A409A617B681F
:103BB000DB681B6AFB603B7BC3F30303DBB21A4683
:103BC00013469B001344DB0003F55C737A681344CF
:103BD0007B61BB7BC3F34303DBB2013B052B45D8C1
:103BE00001A252F823F000BF6D3C0008013C000820
:103BF0006D3C00086D3C00086D3C0008493C000825
:103C0000BA8947F6F07313409BB2002B30D07B6922
:103C1000D968BB89C3F30A139BB21A467868FCF7CC
:103C200057FB7B69DB68BA89C2F30A1292B21A4465
:103C30007B69DA607B699B69BA89C2F30A1292B226
:103C40001A447B699A6113E07B6803F5B963082223
:103C500019467868FCF73CFB7B699B69BA89C2F31B
:103C60000A1292B21A447B699A6102E000BF00E036
:103C700000BF7B68DB687A68D26891693A690A4359
:103C80009A61012318461837BD4680BD80B586B0BD
:103C900000AF7860396000237B610023BB603A6825
:103CA00013469B001344DB0003F58C737A681344BE
:103CB000FB60FB685A69FB689B69D31A7B61FB68F0
:103CC0009A687B699A4202D2FB689B687B617B6938
:103CD00003339B083B617A683B6804339B001344C1
:103CE0009B689B69BB602EE0FB685A69FB689B6917
:103CF000D31A7B61FB689A687B699A4202D2FB689F
:103D00009B687B617B6903339B083B61FB68D968D7
:103D10003B68DAB27B699BB27868FCF79FFAFB6874
:103D2000DA687B691A44FB68DA60FB689A697B6928
:103D30001A44FB689A617A683B6804339B00134419
:103D40009B689B69BB603B891A463B699A4209D9CB
:103D5000FB689A69FB685B699A4203D2FB685B69FE
:103D6000002BC1D1012318461837BD4680BD00BFC6
:103D700080B58AB000AF786000233B6100233B62CE
:103D80000023FB610023BB6100237B610023FB60F8
:103D90003B7C43F001033B747B681B697A681269C2
:103DA00051683A69D2430A405A6000217868FCF7AA
:103DB00099FC00237B6212E07A687B6A04339B00E3
:103DC00013449B68FF229A607A687B6A14339B00D5
:103DD00013445B68FF229A607B6A01337B627B68D5
:103DE0005B781A467B6A9A42E6D87B681B694FF07B
:103DF000FF329A6101233B8401237B847B681B692A
:103E00003A6ADA613B7F43F008033B773B7F43F03C
:103E100001033B773B7F43F004033B773B7F43F059
:103E200002033B777B681B69FA695A613B7E43F06A
:103E300001033B763B7E43F008033B763B7E43F039
:103E400002033B763B7E43F004033B763B7E43F02C
:103E500020033B767B681B69BA691A617B681B6922
:103E60001B687B61BB8A6FF30A13BB827B681B698B
:103E70007A691A607868FDF79BFA0023FB607B7B08
:103E800043F010037B737B68DB68FA685A61054B6B
:103E90001B681B6978689847012318462837BD4678
:103EA00080BD00BF4800002080B584B000AF7860BE
:103EB0007868FCF7A5FE7B68DB68DB68BB60786828
:103EC000FCF77AFE0346032B0CD17B6800229A7024
:103ED0007B684FF400729A807B7A092262F3850333
:103EE0007B720AE07B6801229A707B6840229A808C
:103EF0007B7A052262F385037B727B68DB68BA6894
:103F0000DA600023FB607B7B43F020037B737B68DC
:103F1000DB68FA685A61012318461037BD4680BD38
:103F200080B584B000AF78600023FB60084B1B684D
:103F3000DB6978689847BB7B43F01003BB737B68F1
:103F4000DB68FA685A61012318461037BD4680BD08
:103F50004800002080B584B000AF78600023FB608B
:103F6000084B1B681B6A78689847BB7B43F02003AB
:103F7000BB737B68DB68FA685A6101231846103707
:103F8000BD4680BD4800002080B487B000AF786097
:103F90000B46FB707B681B691B697B617B681B6937
:103FA0005B6B3B61FB783A6922FA03F3DB01DBB21E
:103FB0007A6913437B61FB787A6804339B0013446E
:103FC0009B689A687B691340FB60FB6818461C3746
:103FD000BD4680BC704700BF80B584B000AF78603C
:103FE0000B46FB707B68D3F8EC3539331A88022313
:103FF0008121786800F01CFF7B68D3F8EC354033F2
:104000001A8802230121786800F012FF0323082296
:104010008221786800F00CFF0D4BFB60FB680433D5
:1040200002221A70FB68053300221A70094B1B68C4
:1040300098477B68D3F8EC3540331B88064A01214A
:10404000786800F081FF002318461037BD4680BD18
:104050007C000020A80000206C08002080B582B001
:1040600000AF78600B46FB708121786800F034FF68
:104070000121786800F030FF8221786800F02CFF81
:10408000034B5B689847002318460837BD4680BD40
:10409000A800002080B584B000AF786039603B682C
:1040A0001B7803F06003002B3ED0202B36D13B68F9
:1040B000DB88002B28D03B681B78DBB25BB2002B7F
:1040C00010DA364B9B683A68527810463A68D288C4
:1040D000334998473B68DB881A463149786801F0D4
:1040E000B9F919E03B685B781A462E4B1A603B68B9
:1040F000DB881A462C4B1A603B68DB881A46284935
:10410000786801F0DBF907E0244B9B683A68527845
:10411000104600220021984700233AE03968786869
:10412000FFF7AAF9022334E03B685B780A2B18D02A
:104130000B2B1CD0062B2BD13B685B881B0A9BB238
:10414000212B07D1194BBB603B68DB883A2B28BF7A
:104150003A23FB81FB891A46B968786801F07AF93D
:1041600016E001221249786801F074F910E03B680A
:104170005B88DBB2002B06D13B685B88DBB21A465A
:104180000B4B1A6003E039687868FFF775F900BFD8
:10419000002318461037BD4680BD00BFA800002090
:1041A000AC0800200001002058010020CE000020B3
:1041B0004401002080B582B000AF7860094B1B68D5
:1041C000FF2B0AD0084B9B68064A1068074A126802
:1041D00007499847034BFF221A6000231846083707
:1041E000BD4680BD00010020A8000020580100202D
:1041F000AC08002080B584B000AF78600B46FB703F
:10420000284B1B78012B48D1274B1B68002B03D16F
:10421000244B00221A7040E07B68D3F8EC35393328
:104220001B881A46204B1B689A421ED21F4B1B68E4
:10423000FB817B68D3F8EC35B3F83930BB817B6800
:10424000D3F8EC3539331B881A46184B1B681344D6
:10425000164A1360144B1B687A68D2F8EC25393281
:1042600012889B1A104A13600FE0104B1B68FB81E9
:104270000D4B1B68BB810D4B1A680B4B1B6813441D
:104280000A4A1360084B00221A60FB89084A1A4444
:10429000BB898121786800F099FE00231846103709
:1042A000BD4680BD54010020500100204C0100207B
:1042B000B408002080B584B000AF78600B46FB7076
:1042C000FA78796813469B001344DB000B4403F52E
:1042D00062731B68FB810A4B1B69FA891146094806
:1042E00098477B68D3F8EC3540331B88054A012199
:1042F000786800F029FE002318461037BD4680BDBF
:10430000A80000206C08002080B582B000AF786063
:10431000084B1B685A1C07490A60052B05D1054B41
:1043200000221A60786800F007F800231846083762
:10433000BD4680BD5C01002080B584B000AF7860D0
:10434000384B1B78012B69D0374B1B68B3F5006FD6
:1043500002D1354B00221A60334B1A68334B1B686D
:104360009A4203D12F4B00221A7057E02E4B1A6845
:104370002E4B1B689A4206D92B4B1B68C3F5006372
:104380002B4A136006E0294B1A68274B1B68D31A87
:10439000274A13607B68D3F8EC3539331B881A46FB
:1043A000234B1B689A421ED21F4B1B68FB817B6804
:1043B000D3F8EC35B3F83930BB817B68D3F8EC35F2
:1043C00039331B881A46184B1B681344164A13606E
:1043D000174B1B687A68D2F8EC25393212889B1A81
:1043E000134A13600FE0104B1B68FB81104B1B68D6
:1043F000BB810D4B1A680E4B1B6813440A4A1360AD
:104400000B4B00221A60074B01221A70FB89094AE4
:104410001A44BB898121786800F0D8FD1037BD4669
:1044200080BD00BF540100204C0100204801002045
:1044300050010020B408002080B483B000AF0346D0
:104440003960FB713B6843221A80034B18460C37D6
:10445000BD4680BC704700BFBC00002080B582B064
:1044600000AF78607B68174A93420AD101214FF46C
:104470008050FDF797FF00214FF48050FDF792FF29
:104480001CE07B68104A93420AD101214FF480401E
:10449000FDF76AFF00214FF48040FDF765FF0DE056
:1044A0007B680A4A934209D101214FF40040FDF78D
:1044B0005BFF00214FF40040FDF756FF00BF0837B7
:1044C000BD4680BD0030014000380040003C004047
:1044D00080B485B000AF786039600023FB817B68D1
:1044E0001B88FB81FB8903F44153FB813B681A88DD
:1044F0003B685B8813439AB23B689B8813439AB22C
:104500003B68DB8813439AB23B681B8913439AB21A
:104510003B685B8913439AB23B689B8913439AB209
:104520003B68DB8913439AB2FB891343FB817B68A9
:10453000FA891A807B689B8B9BB223F400639AB242
:104540007B689A833B681A8A7B681A8200BF14379B
:10455000BD4680BC704700BF80B48BB000AF7860B0
:10456000396000237B830223FB840023BB84012367
:104570007B840023FB6100237B6100233B610023DC
:10458000FB600023BB607B689B8B9BB223F47B6347
:1045900023F00F039AB27B689A837B6802221A8405
:1045A0007B689B8B7B833B689B68022B04D1002339
:1045B000BB840223FB8472E03B689B88002B02D102
:1045C00001237B8401E002237B844D4B9B6803F431
:1045D0000003002B05D04A4A494B9B6823F4000393
:1045E0009360474BD3F8842047F6C07313409B0970
:1045F000C3F30803FB60424BD3F8843003F0E0437D
:104600001B0F03F00703BB603D4B5B6803F03F03E8
:104610003B613C4A3B69B2FBF3F3FA6802FB03F2ED
:10462000BB68B2FBF3F37B613B68DB88B3F5007FCB
:104630000FD17B691A0A13469B0013445B001A468C
:104640003B689B68B2FBF3F39BB205339BB2FB6103
:1046500012E07B8C5B011A467B69B3FBF2F21346D6
:104660009B0013445B001A463B689B68B2FBF3F364
:104670009BB205339BB2FB61FB69234AA2FB032378
:10468000DB08FB61FB699BB203F00103BB84BB8CBD
:10469000FA69D31A5B08FB84BB8C1B02BB84FB8CBE
:1046A000012B02D9FB8CFF2B03D90223FB840023AF
:1046B000BB843B68DA88BB8C13439AB2FB8C1343F0
:1046C0009AB27B681A843B681A883B6859883B68B1
:1046D00098883B689B8903439BB20B439BB213436F
:1046E0009AB27B8B13439BB243F400637B837B685A
:1046F0007A8B9A8300BF2C37BD4680BC704700BFC1
:104700000038024040787D01CDCCCCCC80B483B061
:1047100000AF78600B46FB70FB78002B08D07B68FD
:104720001B889BB243F040039AB27B681A8007E073
:104730007B681B889BB223F040039AB27B681A8087
:1047400000BF0C37BD4680BC704700BF80B483B04B
:1047500000AF78600B46FB70FB78002B08D07B68BD
:104760009B8B9BB243F480639AB27B689A8307E089
:104770007B689B8B9BB223F480639AB27B689A839D
:1047800000BF0C37BD4680BC704700BF80B483B00B
:1047900000AF78607B689B899BB218460C37BD469A
:1047A00080BC704780B483B000AF78600B467B80DC
:1047B0007B687A889A8100BF0C37BD4680BC704701
:1047C00080B485B000AF78600B467B800023FB731C
:1047D0007B681B899AB27B8813409BB2002B02D066
:1047E0000123FB7301E00023FB73FB7B18461437A6
:1047F000BD4680BC704700BF80B582B000AF786016
:104800007B68174A93420AD101214FF40010FDF74B
:10481000ABFD00214FF40010FDF7A6FD1CE07B6806
:10482000104A93420AD101214FF48000FDF79CFD0C
:1048300000214FF48000FDF797FD0DE07B680A4AE8
:10484000934209D101214FF40000FDF78DFD0021B5
:104850004FF40000FDF788FD00BF0837BD4680BD5E
:104860000054004000580040005C004080B58AB011
:1048700000AF786039600023FB8400237B8404232D
:10488000BB84574BFB617B689B88FB84FB8C23F0CC
:104890003F03FB8407F10C031846FDF743FC7B69DB
:1048A000FB61FB694F4AA2FB03239B0C7B84FA8CC0
:1048B0007B8C1343FB847B68FA8C9A807B681B8813
:1048C0009BB223F001039AB27B681A800023FB8419
:1048D0003B681B68444A934215D83B681B685B00E1
:1048E000FA69B2FBF3F3BB84BB8C032B01D804231E
:1048F000BB84FA8CBB8C1343FB847B8C01339AB250
:104900007B681A8440E03B68DB884BF6FF72934279
:1049100009D13B681A6813465B001344FA69B2FB7D
:10492000F3F3BB840EE03B681A6813469B00134404
:104930009A001344FA69B2FBF3F3BB84BB8C43F4D3
:104940008043BB84BB8CC3F30B03002B03D1BB8C14
:1049500043F00103BB84BA8CFB8C13439BB26FEA18
:1049600043436FEA5343FB847B8C4FF4967202FB04
:1049700003F31E4A82FB03129211DB17D31A9BB278
:1049800001339AB27B681A847B68FA8C9A837B68BD
:104990001B889BB243F001039AB27B681A807B6844
:1049A0001B88FB84FB8C23F4816323F00203FB84CC
:1049B0003B689A883B685B8913439AB2FB8C13432C
:1049C000FB847B68FA8C1A803B689A893B681B8958
:1049D00013439AB27B681A8100BF2837BD4680BD59
:1049E00000127A0083DE1B43A0860100D34D6210C3
:1049F00080B483B000AF78600B46FB70FB78002B6F
:104A000008D07B681B889BB243F001039AB27B6895
:104A10001A8007E07B681B889BB223F001039AB2DF
:104A20007B681A8000BF0C37BD4680BC704700BF52
:104A300080B483B000AF78600B46FB70FB78002B2E
:104A400008D07B681B889BB243F480739AB27B6862
:104A50001A8007E07B681B889BB223F480739AB2AC
:104A60007B681A8000BF0C37BD4680BC704700BF12
:104A700080B483B000AF78600B46FB70FB78002BEE
:104A800008D07B681B889BB243F400739AB27B68A2
:104A90001A8007E07B681B889BB223F400739AB2EC
:104AA0007B681A8000BF0C37BD4680BC704700BFD2
:104AB00080B483B000AF78600B46FB701346BB70C8
:104AC000BB78002B04D0FB7843F00103FB7003E0BC
:104AD000FB7823F00103FB70FB789AB27B681A82A3
:104AE00000BF0C37BD4680BC704700BF80B483B0A8
:104AF00000AF78600B46FB70FB78002B08D07B681A
:104B00001B889BB243F480639AB27B681A8007E0EB
:104B10007B681B889BB223F480639AB27B681A80FF
:104B200000BF0C37BD4680BC704700BF80B483B067
:104B300000AF78600B46FB70FB789AB27B681A82F4
:104B400000BF0C37BD4680BC704700BF80B483B047
:104B500000AF78607B681B8A9BB2DBB218460C37CB
:104B6000BD4680BC704700BF80B487B000AF78609E
:104B7000396000233B610023FB600023BB600023FE
:104B8000FB757B689B8A9BB2FB607B681B8B9BB22F
:104B9000BB60BB681B04BB60FA68BB68134323F0AF
:104BA0007F433B613A693B681A403B689A4202D1B5
:104BB0000123FB7501E00023FB75FB7D18461C37C4
:104BC000BD4680BC704700BF80B487B000AF78603E
:104BD00039600023FB7500233B610023FB607B6889
:104BE000FB603B681B0F3B613B6823F07F433B60EE
:104BF0003B69002B03D0FB681433FB6005E03B6886
:104C00001B0C3B60FB681833FB60FB681A683B6851
:104C10001340002B02D00123FB7501E00023FB753C
:104C2000FB7D18461C37BD4680BC704780B483B0FE
:104C300000AF7860034A7B68536100BF0C37BD4604
:104C400080BC7047003C014080B483B000AF786006
:104C5000054A7B6843F0BF6343F40033D36000BF71
:104C60000C37BD4680BC704700ED00E080B485B0D5
:104C700000AF78600023FB730023BB730F237B73AB
:104C80007B68DB78002B38D0264BDB68DB4303F4F2
:104C9000E0631B0AFB73FB7BC3F10403BB737A7BEA
:104CA000FB7B42FA03F37B737B685B781A46BB7B22
:104CB00002FA03F3FB737B689A787B7B1340DAB2CA
:104CC000FB7B1343FB73FB7B1B01FB73164A7B6867
:104CD0001B781344FA7B83F80023134A7B681B7804
:104CE0005B09DBB218467B681B7803F01F030121C8
:104CF00001FA03F342F820300FE00B497B681B7880
:104D00005B09DBB218467B681B7803F01F030122A6
:104D10009A4000F1200341F8232000BF1437BD461C
:104D200080BC704700ED00E000E100E080B584B099
:104D300000AF78600B46FB70FB7819467868FBF78C
:104D4000F3FA7B68012283F812217B68002283F842
:104D500013210023FB6023E0FA6813469B001344F1
:104D6000DB0003F58C737A681344BB60BB680122D7
:104D70005A70FB68DAB2BB681A70FB689AB2BB68FB
:104D8000DA80BB680022DA70BB6840229A60BB6898
:104D90000022DA60BB6800225A61FB680133FB60C5
:104DA0007B685B781A46FB689A42D5D80023FB6083
:104DB00023E0FA6813469B001344DB0003F55C73A1
:104DC0007A681344BB60BB6800225A70FB68DAB291
:104DD000BB681A70FB689AB2BB68DA80BB680022B5
:104DE000DA70BB6840229A60BB680022DA60BB6858
:104DF00000225A61FB680133FB607B685B781A46CE
:104E0000FB689A42D5D87868FBF750FC7868FBF7C6
:104E100045FB00217868FBF7CFFC7868FBF74EFD77
:104E20007868FBF729FC00BF1037BD4680BD00BF86
:104E300080B584B000AF7860084611461A46034634
:104E4000FB700B463B801346BB70FB785BB2002BBC
:104E50000CDAFB7803F07F0213469B001344DB005F
:104E600003F58C737A681344FB600BE0FB7803F066
:104E70007F0213469B001344DB0003F55C737A68E2
:104E80001344FB60FB7803F07F03DAB2FB681A700F
:104E9000FB78DB09DBB21A46FB685A703A88FB687C
:104EA0009A60FB68BA78DA70FB685B78002B04D0F4
:104EB000FB681B789AB2FB68DA80BB78022B02D1C0
:104EC000FB6800221A71F9687868FBF7D3FE0023AB
:104ED00018461037BD4680BD80B584B000AF7860FD
:104EE0000B46FB70FB785BB2002B0CDAFB7803F00F
:104EF0007F0213469B001344DB0003F58C737A6832
:104F00001344FB600BE0FB7803F07F0213469B0029
:104F10001344DB0003F55C737A681344FB60FB7891
:104F200003F07F03DAB2FB681A70FB78DB09DBB2AF
:104F30001A46FB685A70F9687868FBF709FF002386
:104F400018461037BD4680BD80B586B000AFF8600A
:104F50007A601A460B46FB7213463B81FB7A03F0DC
:104F60007F0213469B001344DB0003F55C73FA6871
:104F700013447B617B697A68DA603A897B695A619C
:104F80007B6900229A617B6900225A70FB7A03F0E8
:104F90007F03DAB27B691A70FB68DB78012B02D1E0
:104FA0007A687B691A617B691B78002B04D1796967
:104FB000F868FCF751F803E07969F868FBF70CFF33
:104FC000002318461837BD4680BD00BF80B586B0A7
:104FD00000AFF8607A603B600B46FB72FB7A03F02F
:104FE0007F0213469B001344DB0003F58C73FA68C1
:104FF00013447B617B6901225A70FB7A03F07F03C3
:10500000DAB27B691A707B697A68DA607A687B69E0
:105010001A617B6900229A617B693A685A617B69EF
:105020001B78002B04D17969F868FCF715F803E0C8
:105030007969F868FBF7D0FE002318461837BD469B
:1050400080BD00BF80B584B000AF78600B46FB70B8
:10505000FB785BB2002B0CDAFB7803F07F0213467F
:105060009B001344DB0003F58C737A681344FB60E8
:1050700009E0FA7813469B001344DB0003F55C73E8
:105080007A681344FB60FB6801229A70FB7803F096
:105090007F03DAB2FB681A70FB78DB09DBB21A46D1
:1050A000FB685A70F9687868FCF7C0F80023184666
:1050B0001037BD4680BD00BF80B584B000AF7860BA
:1050C0000B46FB70FB785BB2002B0CDAFB7803F02D
:1050D0007F0213469B001344DB0003F58C737A6850
:1050E0001344FB6009E0FA7813469B001344DB008D
:1050F00003F55C737A681344FB60FB6800229A70C6
:10510000FB7803F07F03DAB2FB681A70FB78DB09E7
:10511000DBB21A46FB685A70F9687868FCF7C8F881
:10512000002318461037BD4680BD00BF80B485B04F
:1051300000AF78600B46FB700023FB60FB7803F048
:105140007F03DAB2BB8962F30A13BB817B681B69F8
:105150007A6812691168FA680A431A6000BF143746
:10516000BD4680BC704700BF80B584B000AF78609A
:105170000023FB7300F086F87B685A787B681B7805
:105180001343DAB27B68DB781343DAB27B681B79AE
:105190001343DAB27B689B781343DBB2FB7307F1EE
:1051A0000F0301222021184600F004F800BF103739
:1051B000BD4680BD80B582B000AF78600B46FB7005
:1051C00013463B803B88012B03D9FB7843F0400317
:1051D000FB7008210E48FDF787FAFB78184600F0AF
:1051E000EDF80AE07B681B78184600F0E7F83B888A
:1051F000013B3B807B6801337B603B88002BF1D116
:1052000008210348FDF762FA00BF0837BD4680BD9C
:105210000010024080B582B000AF78600B46FB7092
:1052200013463B803B88012B04D9FB7863F03F0396
:10523000FB7003E0FB7863F07F03FB7008211048EC
:10524000FDF752FAFB78184600F0B8F80CE00020A1
:1052500000F0B4F803461A467B681A703B88013B9D
:105260003B807B6801337B603B88002BEFD10821BA
:105270000348FDF72BFA00BF0837BD4680BD00BFCD
:105280000010024080B588B000AF01214FF480507B
:10529000FDF74CF801210120FCF7EEFF0121102061
:1052A000FCF7EAFF01211020FCF7E6FF01211020A6
:1052B000FCF7E2FF052205213D48FDF723FA052210
:1052C00006213B48FDF71EFA052207213848FDF765
:1052D00019FA02233B770023BB770223FB770223D3
:1052E0007B772023BB6107F1180319463048FDF78F
:1052F0002BF98023BB6107F1180319462C48FDF7F1
:1053000023F94023BB6107F1180319462848FDF72C
:105310001BF92848FFF7A2F80023BB8000233B813C
:1053200000237B810023BB814FF40073FB810823A2
:105330003B8200237B820723BB824FF48273FB8076
:105340003B1D19461B48FFF7C3F801211948FFF719
:10535000DDF90823BB6101233B770023BB770223E0
:105360007B7707F1180319461348FDF7EDF808217C
:105370001148FDF7ABF90123BB6100233B77002304
:10538000BB7702237B770023FB7707F118031946CD
:105390000948FDF7D9F80223BB6107F11803194644
:1053A0000548FDF7D1F800BF2037BD4680BD00BFDE
:1053B00000000240003001400010024080B582B081
:1053C00000AF0346FB711F4B4FF480521A600BE095
:1053D0001C4B1B685A1E1B490A60002B04D100F0AD
:1053E00035F80346DBB229E002211748FFF7E8F958
:1053F0000346002BECD0FB799BB219461248FFF70D
:10540000D1F9104B4FF480521A600BE00D4B1B6822
:105410005A1E0C490A60002B04D100F017F803460D
:10542000DBB20BE001210848FFF7CAF90346002B65
:10543000ECD00548FFF7AAF90346DBB21846083757
:10544000BD4680BD300100200030014080B400AF77
:10545000FEE700BF80B586B000AFF860B9601346C4
:10546000FB800023FB75FA88FB68C3F83821FA88B3
:10547000FB68C3F83421FB68022283F81121FB8802
:10548000BA680021F868FFF7A1FDFB7D18461837C0
:10549000BD4680BD80B586B000AFF860B9601346E8
:1054A000FB800023FB75FB88BA680021F868FFF7D2
:1054B0008DFDFB7D18461837BD4680BD80B586B092
:1054C00000AFF860B9601346FB800023FB75FA88D3
:1054D000FB68C3F89023FA88FB68C3F88C23FB6849
:1054E000032283F81121FB88BA680021F868FFF7CE
:1054F0002BFDFB7D18461837BD4680BD80B586B0B4
:1055000000AFF860B9601346FB800023FB75FB8891
:10551000BA680021F868FFF717FDFB7D18461837B9
:10552000BD4680BD80B584B000AF78600023FB73BA
:105530007B68042283F8112100230022002178686F
:10554000FFF744FD7868FBF733FFFB7B1846103705
:10555000BD4680BD80B584B000AF78600023FB738A
:105560007B68052283F8112100230022002178683E
:10557000FFF7EAFC7868FBF71BFFFB7B1846103748
:10558000BD4680BD80B485B000AF7860396000232F
:10559000FB817B681B88FB817B68284A934213D080
:1055A0007B68274A93420FD07B68B3F1804F0BD0C2
:1055B0007B68244A934207D07B68234A934203D0F6
:1055C0007B68224A934208D1FB8923F07003FB8158
:1055D0003B685A88FB891343FB817B681C4A9342D2
:1055E0000CD07B681B4A934208D0FB8923F440739C
:1055F000FB813B681A89FB891343FB817B68FA892D
:105600001A803B685A687B68DA623B681A887B6854
:105610001A857B68094A934203D07B68084A934203
:1056200004D13B689B7A9AB27B681A867B68012218
:105630009A8200BF1437BD4680BC7047000001400D
:10564000000401400004004000080040000C00403D
:10565000001000400014004080B483B000AF7860B8
:105660007B685B6A18460C37BD4680BC704700BF3C
:1056700080B483B000AF78600B46FB70FB78002BE2
:1056800008D07B681B889BB243F001039AB27B6809
:105690001A8007E07B681B889BB223F001039AB253
:1056A0007B681A8000BF0C37BD4680BC704700BFC6
:1056B00010203040403020108090000053544D3373
:1056C00032205669727475616C20436F6D506F7231
:1056D0007420696E204853206D6F646500000000DF
:1056E00053544D3332205669727475616C20436F88
:1056F0006D506F727420696E204653204D6F646543
:105700000000000053544D6963726F656C656374EB
:10571000726F6E696373000030303030303030307B
:105720003035304200000000303030303030303022
:10573000303530430000000056435020436F6E6602
:105740006967000056435020496E74657266616354
:025750006500F2
:105752007514000881140008A9140008CD1400086B
:10576200D9140008B5140008C11400082116000855
:10577200ED160008B51500087D180008F11700089D
:1057820059180008351800080119000821190008E5
:1057920000000000000000001C0000205800000073
:1057A20000000000010203040102030406070809C5
:1057B200E1230008052400086924000829240008C0
:1057C20091240008D12400080D25000812010002CE
:1057D2000000004083044057000201020301000060
:1057E2000A06000200000040010000000403090450
:1057F20000C201000000080095270008A527000844
:10580200B5270008E12800083D29000809024300E5
:10581200020100C032090400000102020100052455
:1058220000100105240100010424020205240600DF
:1058320001070582030800FF09040100020A0000B3
:105842000007050102400000070581024000000038
:10585200FF000000D93F00085D40000895400008A5
:1058620000000000B5410008F5410008B5420008FB
:10587200094300080000000000000000394400084D
:045882000010000012
:0400000508000000EF
:00000001FF
